:020000040800F2
:1000000000200020C5080008110900081109000897
:1000100000000000000000000000000000000000E0
:1000200000000000000000000000000011090008AE
:10003000000000000000000011090008110900087C
:100040001109000811090008110900081109000828
:100050001109000811090008110900081109000818
:100060001109000811090008110900081109000808
:1000700011090008110900081109000811090008F8
:10008000110900081109000800000000110900080A
:1000900011090008110900081109000811090008D8
:1000A00011090008110900081109000811090008C8
:1000B000ED03000800000000110900080000000026
:1000C0005FF808F180B588B000AF78600023FB616D
:1000D0000023BB6100237B6100233B610023FB60A5
:1000E000654B5A680C231340FB61FB69042B07D056
:1000F000082B09D0002B30D17B68604A1A6030E0B1
:100100007B685E4A1A602CE05B4B5A68F0239B03C5
:100110001340BB61584B5A6880235B0213407B61DC
:10012000BB699B0C0233BB617B69002B05D1BB69AA
:10013000534A5A437B681A6013E04F4BDA6A0F2325
:10014000134001333B614D48396900F07FFF031CC8
:10015000BA695A437B681A6003E07B68474A1A60B1
:10016000C046454B5A68F0231340FB61FB691B09ED
:10017000FB61444AFB69D3181B78DBB2FB607B68E8
:100180001A68FB68DA407B685A603B4B5A68E02388
:10019000DB001340FB61FB691B0AFB61394AFB6909
:1001A000D3181B78DBB2FB607B685A68FB68DA40C7
:1001B0007B689A60304B1A6B80235B00134003D13D
:1001C0007B68314ADA6010E02B4B5A688023DB01F0
:1001D000134005D17B689B685A087B68DA6004E0AD
:1001E0007B689B689A087B68DA60234B1A6B402314
:1001F000134003D17B68254A1A6103E07B688022A3
:1002000012021A611C4B1A6B1023134003D17B6836
:100210001A4A5A6103E07B681A687B685A61164B78
:100220001A6B0323134004D17B689A687B689A6138
:100230001EE0114B1A6B03231340012B04D17B6882
:100240001A687B689A6113E00B4B1A6B0323134007
:10025000022B04D17B68802212029A6108E0064BCF
:100260001A6B03231340032B02D17B68034A9A6164
:10027000BD4608B080BDC0460010024000127A00A2
:1002800000093D0000000020809FD5001280000082
:1002900080B582B000AF78600A1CFB1C1A70FB1C92
:1002A0001B78002B06D0084B074A51697A680A432D
:1002B0005A6106E0044B044A52697968C9430A400E
:1002C0005A61BD4602B080BD0010024080B582B0C8
:1002D00000AF78600A1CFB1C1A70FB1C1B78002BFB
:1002E00006D0084B074AD1697A680A43DA6106E00A
:1002F000044B044AD2697968C9430A40DA61BD46B1
:1003000002B080BD0010024080B586B000AFF8603A
:10031000B960FB1D1A703B1C173300221A7015E0E0
:100320003B1C17331B78FA68D3181A783B1C173319
:100330001B78B968CB181B789A4200D01DE03B1C93
:1003400017331A783B1C173301321A703A1C1732D4
:10035000FB1D12781B789A420FD23B1C17331B7877
:10036000FA68D3181B78002B07D03B1C17331B7877
:10037000BA68D3181B78002BD2D13A1C1732FB1D58
:1003800012781B78D31A5A425341DBB2181CBD466F
:1003900006B080BD80B586B000AFF860B960FB1DC7
:1003A0001A703B1C173300221A7012E03B1C1733E3
:1003B0001B78BA68D3183A1C17321278F9688A1871
:1003C00012781A703B1C17331A783B1C1733013212
:1003D0001A703B1C17331B78FA68D3181B78FA1D68
:1003E00012789A42E2D1BD4606B080BD80B582B097
:1003F00000AFBB1D00221A707A4A7B4B101C191CDF
:1004000000F05CFD031C012B00D0E7E0754A764B41
:10041000101C191C00F0ACFD724B181C00F0E8FC1D
:10042000031C1A1CBB1D1A70BB1D1B78242B08D182
:100430006E4B01221A706E4B00221A706D4B002217
:100440001A70BB1D1B780A2B00D0B7E0674B1B78D6
:10045000002B00D1B2E0654B00221A70664A674B50
:10046000101C191C0622FFF74FFF031C002B0FD096
:10047000634B1B78DBB2002B06D05F4A614B101C2C
:10048000191C0D22FFF786FF5F4B01221A7080E0D6
:10049000594A5E4B101C191C0622FFF735FF031C3E
:1004A000002B0FD05A4B1B78DBB2002B06D0524AE0
:1004B000584B101C191C0D22FFF76CFF564B0122E4
:1004C0001A7066E04C4A554B101C191C0622FFF7A7
:1004D0001BFF031C002B0FD0514B1B78DBB2002BF2
:1004E00006D0454A4F4B101C191C0D22FFF752FF36
:1004F0004D4B01221A704CE03F4A4C4B101C191C0A
:100500000622FFF701FF031C002B0FD0484B1B787E
:10051000DBB2002B06D0384A464B101C191C0D22AA
:10052000FFF738FF444B01221A7032E0324A434B46
:10053000101C191C0622FFF7E7FE031C002B0FD02E
:100540003F4B1B78DBB2002B06D02B4A3D4B101CD7
:10055000191C0D22FFF71EFF3B4B01221A7018E0F9
:10056000254A3A4B101C191C0622FFF7CDFE031C2E
:10057000002B0ED0364B1B78DBB2002B06D01E4A68
:10058000344B101C191C0D22FFF704FF324B0122C3
:100590001A70FB1D00221A7009E0FB1D1B78164A19
:1005A0000021D154FB1D1A78FB1D01321A70FB1D6E
:1005B0001B78C72BF1D90F4B01221A700B4B1B78FC
:1005C000002B0BD00A4B1B780B4AB91D0978D1546C
:1005D000074B1B780133DAB2054B1A70BD4602B0E7
:1005E00080BDC04600440040050105001F000020FA
:1005F000200000201800002024000020EC1000083B
:1006000010000020BC01002019000020F410000898
:10061000110000204C0300201A000020FC100008EC
:1006200012000020FC0400201B0000200411000820
:1006300013000020F00000201C0000200C11000816
:1006400014000020840200201D0000201411000866
:1006500015000020140400201E000020F0B54746BD
:1006600080B484B000AF80239B02181C0121FFF7E7
:100670000FFE80239B02181C0121FFF727FE7A4BF7
:100680000C221A60784B00229A71774B03225A7120
:10069000754B02221A719023DA05734B101C191C3A
:1006A00000F0EEF99023DB05181C0221012200F076
:1006B00083FA9023DB05181C0321012200F07CFA49
:1006C0006A4B962292011A60684B00225A61674B6E
:1006D0000C221A61654B0022DA60644B00229A609A
:1006E000624B00225A60624A604B101C191C00F0D9
:1006F000B1FA5F4A80235B01101C191C00F0C8FB93
:100700005B4A5C4B101C191C00F032FC584A594BD8
:10071000101C191C012200F079FB554B181C0121FB
:1007200000F048FB544B1C221A70534B01229A7064
:10073000514B00225A70504B181C00F031FCC0463F
:100740004E4B1B78DBB2002BFAD04D4B1B78DBB243
:10075000002BF5D04B4B1B78DBB2002BF0D04A4B73
:100760001B78DBB2002BEBD0484B1B78DBB2002BA5
:10077000E6D0474B1B78DBB2002BE1D00023454A83
:10078000191C1170444A191C1170444A191C11702B
:10079000434A191C1170434A191C1170424A1370C4
:1007A0003B1C0F3300221A7032E03B1C0F331B78C6
:1007B0007B603B1C0F331B783B603B1C0F3318786E
:1007C0003B1C0F331C783B1C0F331D783B1C0F3335
:1007D0001E78002335498C4698464146624691551D
:1007E000334E9C4662467255324D1E1C2E55324C7D
:1007F0001D1C255431481C1C3968445430497A6802
:100800008B543B1C0F331A783B1C0F3301321A7088
:100810003B1C0F331B78C72BC7D901231D4A191C5A
:1008200011701D4A191C11701C4A191C11701C4AA8
:10083000191C11701B4A191C11701B4A13700023DC
:10084000134A191C1170114A191C11700E4A191CF7
:1008500011700C4A191C1170084A191C1170084AB1
:100860001370C0466BE7C046DC040020E40400209F
:100870000044004005010500B80100201A000020D6
:100880001B000020190000201C0000201D0000207B
:100890001E0000201500002014000020130000207E
:1008A000100000201100002012000020140400207D
:1008B00084020020F0000020BC0100204C03002036
:1008C000FC0400200C488546002103E00B4B5B58DC
:1008D000435004310A480B4B42189A42F6D30A4A55
:1008E00002E0002313600432084B9A42F9D300F06F
:1008F00011F8FFF7B3FEFEE7002000201C110008EE
:10090000000000201800002018000020C40500206E
:10091000FEE7000080B500AF1B4B1B4A12680121A7
:100920000A431A60184B184A5168184A0A405A601C
:10093000154B154A1168164A0A401A60124B124AA2
:100940001168144A0A401A600F4B0F4A5168124A44
:100950000A405A600C4B0C4AD26A0F218A43DA6271
:10096000094B094A116B0D4A0A401A63064B064AA5
:10097000526B01218A435A63034B00229A6000F0B4
:100980000FF8BD4680BDC046001002400CB8FFF80D
:10099000FFFFF6FEFFFFFBFFFFFFC0FFACFEFFFF08
:1009A00080B582B000AF00237B6000233B60314BF9
:1009B000304A1268802149020A431A602D4B1A6896
:1009C00080239B0213403B607B6801337B603B6864
:1009D000002B04D17A68A023DB019A42EED1254B8B
:1009E0001A6880239B02134002D001233B6001E080
:1009F00000233B603B68012B38D11F4B11221A604A
:100A00001C4B1C4A52685A601A4B1A4A52685A6068
:100A1000184B184A5168194A0A405A60154B154A32
:100A20005268882149030A435A60124B114A1268DE
:100A3000802149040A431A60C0460E4B1A6880237D
:100A40009B041340F9D00B4B0A4A526803218A4396
:100A50005A60084B074A526802210A435A60C0464E
:100A6000044B5A680C231340082BF9D1BD4602B041
:100A700080BDC0460010024000200240FFFFC0FFC2
:100A800080B586B000AF7860396000237B610023B9
:100A90003B610023FB6000237B6185E07B690122D1
:100AA000101C9840031C3B613B681B683A6913406B
:100AB000FB60FA683B699A4273D13B681B79012B52
:100AC00003D03B681B79022B38D17B689B687A691D
:100AD00052000321081C9040021CD2431A407B683C
:100AE0009A607B689A683B685B79191C7B695B003C
:100AF000081C9840031C1A437B689A607B689B889B
:100B00009BB27A6992B20121081C9040021C92B2F9
:100B1000D24392B213409AB27B689A807B689B88DA
:100B20009AB23B689B79191C7B699BB2081C984060
:100B3000031C9BB213439AB27B689A807B681B6844
:100B40007A6952000321081C9040021CD2431A40CB
:100B50007B681A607B681A683B681B79191C7B6983
:100B60005B00081C9840031C1A437B681A607B6872
:100B7000DB687A6992B252000321081C9040021C83
:100B8000D2431A407B68DA607B68DA683B68DB79BD
:100B9000191C7B695B00081C9840031C1A437B6886
:100BA000DA607B6901337B617B690F2B00D875E7C5
:100BB000BD4606B080BDC04690B585B000AF786038
:100BC000BB1C19807B1C1A700023FB600023BB60D8
:100BD0007B1C1A78BB1C198807230B409B00111C37
:100BE00099400B1CFB60BB1C1B88DB089BB21A1CCA
:100BF000BB1C1B88DB089BB2191C7B680831890071
:100C0000CB58B91C08880721014089000F20041C1B
:100C10008C40211CC94319407B6808329200D15096
:100C2000BB1C1B88DB089BB21A1C7B680832920035
:100C3000D258FB681343BB60BB1C1B88DB089BB20C
:100C40001A1C7B6808329200B968D150BD4605B0C5
:100C500090BDC04680B58CB000AF7860396000238D
:100C6000FB620023BB6200237B627B681B6801225E
:100C7000191C91430A1C7B681A607B685B687B6265
:100C80007A6A474B13407B623B689B687A6A1343DE
:100C90007B627B687A6A5A607B681B687B627A6ACF
:100CA000404B13407B623B685A683B68DB681A43E1
:100CB0003B681B6913437A6A13437B627B687A6AD9
:100CC0001A607B689B687B627A6A374B13407B6251
:100CD0003B685B697A6A13437B627B687A6A9A60D5
:100CE0003B1C0833181CFFF7EDF97A682F4B9A422A
:100CF00004D13B1C08339B69BB6203E03B1C0833F7
:100D00009B68BB627B681A6880231B02134014D067
:100D1000BB6A5A003B681B68101C191C00F096F94E
:100D2000031CFB62BB6A5A003B681B68101C191C41
:100D300000F0D0F90B1C7B6210E03B681B68B86ABE
:100D4000191C00F083F9031CFB623B681B68BA6A3C
:100D5000101C191C00F0BEF90B1C7B623B681B6861
:100D60005A087B6A9A4202D8FB6A0133FB627B68AD
:100D70001A6880231B0213400AD0FA6A0F2313401B
:100D80005B087B62FA6A0A4B1A407B6A1343FB6278
:100D9000FB6A9AB27B689A81BD460CB080BDC046A2
:100DA000FFCFFFFFF3E9FFFFFFFCFFFF003801402B
:100DB000F0FF000080B582B000AF78600A1CFB1C19
:100DC0001A70FB1C1B78002B06D07B681B68012265
:100DD0001A437B681A6007E07B681B680122191CB4
:100DE00091430A1C7B681A60BD4602B080BDC046B4
:100DF00080B582B000AF78607B689B8C9BB2DB05CE
:100E0000DB0D9BB2181CBD4602B080BD80B588B01A
:100E100000AFF860B960FB1D1A700023BB610023AE
:100E20007B6100233B610023FB61FB68FB61BB68C6
:100E30009BB21B0A9BB2BB61BA68FF2313407B6164
:100E40007B690122111C99400B1C3B61BB69022B81
:100E500003D1FB690433FB6105E0BB69032B02D1BD
:100E6000FB690833FB61FB1D1B78002B06D0FB6977
:100E7000FA6911683A690A431A6006E0FB69FA697F
:100E800012683969C9430A401A60BD4608B080BD7E
:100E900080B582B000AF786039607B689A68064B95
:100EA0001A407B689A607B689A683B681A437B6843
:100EB0009A60BD4602B080BDFFEFFFFF80B586B0EF
:100EC00000AF786039600023FB6000237B61002362
:100ED000BB603B1C133300221A703B689BB21B0A99
:100EE0009BB2BB603A68FF2313407B617B690122A0
:100EF000111C99400B1C7B61BB68012B05D17B68E1
:100F00001A687B6913407B610DE0BB68022B05D139
:100F10007B685A687B6913407B6104E07B689A6850
:100F20007B6913407B613B681B0CFB60FB68012203
:100F3000111C99400B1CFB607B68DA69FB6813404D
:100F4000FB607B69002B07D0FB68002B04D03B1CA7
:100F5000133301221A7003E03B1C133300221A7072
:100F60003B1C13331B78181CBD4606B080BDC04621
:100F700080B584B000AF786039600023FB60002347
:100F8000BB603B681B0CFB60FB680122111C994095
:100F90000B1CBB607B68BA681A62BD4604B080BD9A
:100FA00080B584B000AF78600023FB607B689B78DD
:100FB000002B3CD0244B7A6812789208D2B2C0320F
:100FC0009200D358FB607B681B781A1C03231340E4
:100FD000DB00FF22101C9840031CDA43FB6813401F
:100FE000FB607B685B789A01FF231A407B681B7863
:100FF000191C03230B40DB00111C99400B1CFA68E1
:101000001343FB60104B7A6812789208D2B2C03258
:101010009200F968D1500C4B7A681278111C1F228B
:101020000A400121081C9040021C1A6009E0064A8F
:101030007B681B78191C1F230B40012199408023DA
:10104000D150BD4604B080BD00E100E0002934D09D
:101050000123002210B488422CD301242407A1428A
:1010600004D2814202D209011B01F8E7E400A14247
:1010700004D2814202D249005B00F8E7884201D3E2
:10108000401A1A434C08A04202D3001B5C082243BA
:101090008C08A04202D3001B9C082243CC08A0422B
:1010A00002D3001BDC082243002803D01B0901D017
:1010B0000909E3E7101C10BC7047002801D000208C
:1010C000C04307B4024802A14018029003BDC046C5
:1010D000190000000029F0D003B5FFF7B9FF0EBCDE
:1010E0004243891A1847C0467047C04624475047B4
:1010F00047410000244750474C4C000024475047CC
:101100005341000024475047535600002447505293
:0C1110004D430000244750565447000097
:10111C000000000001020304010203040607080991
:08112C000101010101010000B5
:0400000508000000EF
:00000001FF
