:020000040800F2
:1000000000200020011200084D1200084D120008C7
:1000100000000000000000000000000000000000E0
:100020000000000000000000000000004D12000869
:1000300000000000000000004D1200084D120008F2
:100040004D1200084D1200084D1200084D12000814
:100050004D1200084D1200084D1200084D12000804
:100060004D1200084D1200084D1200084D120008F4
:100070004D1200084D1200084D1200084D120008E4
:100080004D1200084D120008000000004D1200083B
:100090004D1200084D1200084D1200084D120008C4
:1000A0004D1200084D1200084D1200084D120008B4
:1000B000ED030008000000004D12000800000000E1
:1000C0005FF808F180B588B000AF78600023FB616D
:1000D0000023BB6100237B6100233B610023FB60A5
:1000E000654B5A680C231340FB61FB69042B07D056
:1000F000082B09D0002B30D17B68604A1A6030E0B1
:100100007B685E4A1A602CE05B4B5A68F0239B03C5
:100110001340BB61584B5A6880235B0213407B61DC
:10012000BB699B0C0233BB617B69002B05D1BB69AA
:10013000534A5A437B681A6013E04F4BDA6A0F2325
:10014000134001333B614D48396902F00DFE031C39
:10015000BA695A437B681A6003E07B68474A1A60B1
:10016000C046454B5A68F0231340FB61FB691B09ED
:10017000FB61444AFB69D3181B78DBB2FB607B68E8
:100180001A68FB68DA407B685A603B4B5A68E02388
:10019000DB001340FB61FB691B0AFB61394AFB6909
:1001A000D3181B78DBB2FB607B685A68FB68DA40C7
:1001B0007B689A60304B1A6B80235B00134003D13D
:1001C0007B68314ADA6010E02B4B5A688023DB01F0
:1001D000134005D17B689B685A087B68DA6004E0AD
:1001E0007B689B689A087B68DA60234B1A6B402314
:1001F000134003D17B68254A1A6103E07B688022A3
:1002000012021A611C4B1A6B1023134003D17B6836
:100210001A4A5A6103E07B681A687B685A61164B78
:100220001A6B0323134004D17B689A687B689A6138
:100230001EE0114B1A6B03231340012B04D17B6882
:100240001A687B689A6113E00B4B1A6B0323134007
:10025000022B04D17B68802212029A6108E0064BCF
:100260001A6B03231340032B02D17B68034A9A6164
:10027000BD4608B080BDC0460010024000127A00A2
:1002800000093D0000000020809FD5001280000082
:1002900080B582B000AF78600A1CFB1C1A70FB1C92
:1002A0001B78002B06D0084B074A51697A680A432D
:1002B0005A6106E0044B044A52697968C9430A400E
:1002C0005A61BD4602B080BD0010024080B582B0C8
:1002D00000AF78600A1CFB1C1A70FB1C1B78002BFB
:1002E00006D0084B074AD1697A680A43DA6106E00A
:1002F000044B044AD2697968C9430A40DA61BD46B1
:1003000002B080BD0010024080B586B000AFF8603A
:10031000B960FB1D1A703B1C173300221A7015E0E0
:100320003B1C17331B78FA68D3181A783B1C173319
:100330001B78B968CB181B789A4200D01DE03B1C93
:1003400017331A783B1C173301321A703A1C1732D4
:10035000FB1D12781B789A420FD23B1C17331B7877
:10036000FA68D3181B78002B07D03B1C17331B7877
:10037000BA68D3181B78002BD2D13A1C1732FB1D58
:1003800012781B78D31A5A425341DBB2181CBD466F
:1003900006B080BD80B586B000AFF860B960FB1DC7
:1003A0001A703B1C173300221A7012E03B1C1733E3
:1003B0001B78BA68D3183A1C17321278F9688A1871
:1003C00012781A703B1C17331A783B1C1733013212
:1003D0001A703B1C17331B78FA68D3181B78FA1D68
:1003E00012789A42E2D1BD4606B080BD80B582B097
:1003F00000AFBB1D00221A707A4A7B4B101C191CDF
:1004000001F0FAF9031C012B00D0E7E0754A764BA6
:10041000101C191C01F04AFA724B181C01F086F9E5
:10042000031C1A1CBB1D1A70BB1D1B78242B08D182
:100430006E4B01221A706E4B00221A706D4B002217
:100440001A70BB1D1B780A2B00D0B7E0674B1B78D6
:10045000002B00D1B2E0654B00221A70664A674B50
:10046000101C191C0322FFF74FFF031C002B0FD099
:10047000634B1B78DBB2002B06D05F4A614B101C2C
:10048000191C0D22FFF786FF5F4B01221A7080E0D6
:10049000594A5E4B101C191C0322FFF735FF031C41
:1004A000002B0FD05A4B1B78DBB2002B06D0524AE0
:1004B000584B101C191C0D22FFF76CFF564B0122E4
:1004C0001A7066E04C4A554B101C191C0322FFF7AA
:1004D0001BFF031C002B0FD0514B1B78DBB2002BF2
:1004E00006D0454A4F4B101C191C0D22FFF752FF36
:1004F0004D4B01221A704CE03F4A4C4B101C191C0A
:100500000322FFF701FF031C002B0FD0484B1B7881
:10051000DBB2002B06D0384A464B101C191C0D22AA
:10052000FFF738FF444B01221A7032E0324A434B46
:10053000101C191C0322FFF7E7FE031C002B0FD031
:100540003F4B1B78DBB2002B06D02B4A3D4B101CD7
:10055000191C0D22FFF71EFF3B4B01221A7018E0F9
:10056000254A3A4B101C191C0322FFF7CDFE031C31
:10057000002B0ED0364B1B78DBB2002B06D01E4A68
:10058000344B101C191C0D22FFF704FF324B0122C3
:100590001A70FB1D00221A7009E0FB1D1B782F4A00
:1005A0000021D154FB1D1A78FB1D01321A70FB1D6E
:1005B0001B78C72BF1D90F4B01221A700B4B1B78FC
:1005C000002B0BD00A4B1B78244AB91D0978D15453
:1005D000074B1B780133DAB2054B1A70BD4602B0E7
:1005E00080BDC04600440040050105004B040020CA
:1005F0004C0400204404002053040020C44F000891
:1006000010000020E805002045040020C84F000825
:10061000110000207807002046040020CC4F00087D
:10062000120000202809002047040020D04F0008B5
:10063000140000201C05002048040020D44F0008AE
:1006400015000020B006002049040020D84F000803
:1006500016000020400800204A040020500400201A
:1006600080B584B000AF786039607B68BB603B6860
:10067000012B10D90023FB6006E07B68BA68534366
:100680007B60FB680133FB603B685A1EFB689A4243
:10069000F3D87B680AE03B68012B01D17B6805E059
:1006A0003B68002B01D1012300E00023181CBD464C
:1006B00004B080BD80B584B000AF78603B1C0F33C0
:1006C00000221A703B1C0E3300221A701FE03B1CE4
:1006D0000E331B780A20191CFFF7C2FF021C7B682F
:1006E0009A420DDC3B1C0F333A1C0E3212781A7002
:1006F0003B1C0E331A783B1C0E3301321A7006E095
:100700003B1C0F333A1C0E3212781A7004E03B1C6B
:100710000E331B78092BDAD93B1C0F331B78181CBE
:10072000BD4604B080BDC04680B582B000AF7860E1
:100730007B68002B02DA7B685B4200E07B68181C58
:10074000BD4602B080BDC04680B582B000AF7860C3
:100750007868002102F0CAFB031C002B04D07B68E0
:1007600080221206534000E07B68181CBD4602B090
:1007700080BDC04690B585B000AF78600A1CFB1CF8
:100780001A700023FB607B681B782D2B31D13B1C3A
:100790000B3300221A7021E03B1C0B331B785BB239
:1007A00001337A68D3181B781C1C303CFB1C1B7867
:1007B0005A1E3B1C0B331B785BB2D31A0A20191C40
:1007C000FFF74EFF031C6343FA68D318FB603B1C22
:1007D0000B331A783B1C0B3301321A703B1C0B3362
:1007E00000229A56FB1C1B789A42D5DBFB685B42C1
:1007F0002EE03B1C0B3300221A7020E03B1C0B3315
:100800001B785BB27A68D3181B781C1C303CFB1C2D
:100810001B785A1E3B1C0B331B785BB2D31A0A2081
:10082000191CFFF71DFF031C6343FA68D318FB6014
:100830003B1C0B331A783B1C0B3301321A703B1CE8
:100840000B3300229A56FB1C1B789A42D6DBFB68BE
:10085000181CBD4605B090BD80B58AB000AFF860E9
:10086000B9607A601A1CFB1C1A703B1C26330022EC
:100870001A703B1C253300221A703B1C10330022D7
:100880001A703B1C103300225A703B1C103300229C
:100890009A703B1C10330022DA703B1C103300228C
:1008A0001A713B1C103300225A713B1C103300227A
:1008B0009A713B1C10330022DA713B1C103300226A
:1008C0001A723B1C103300225A7218E03B1C25336D
:1008D0001B78FA68D2183B1C263312781A703B1C1E
:1008E00025331B783A1C1032391C26310978D15433
:1008F0003B1C25331A783B1C253301321A703B1CF4
:1009000026331B782E2BE1D13B1C25331B78013B72
:10091000DBB23A1C1032101C191CFFF72BFF031C12
:100920003B62FB1C1B78092B34D83B1C27333A1C39
:10093000253212781A7016E03B1C27331A783B1CBC
:1009400025331B78D31A3A1C27321278F9688A1893
:1009500011783A1C1032D1543B1C27331A783B1CB7
:10096000273301321A703B1C27331A783B1C25337E
:100970001978FB1C1B78CB189A42DDDB3A1C10322D
:100980003B1C25331B78101C191CFFF7F3FE031CBE
:10099000FB614FE03B1C1B333A1C253212781A7066
:1009A0001CE03B1C25331B78FA68D2183B1C26330D
:1009B00012781A703B1C25331A783B1C1B331B78AA
:1009C000D31A3A1C1032391C26310978D1543B1CF9
:1009D00025331A783B1C253301321A703A1C263213
:1009E000FB1C12781B789A42DBD13A1C25323B1C47
:1009F0001B3312781B78D31ADBB2013BDBB23A1CF3
:100A00001032101C191CFFF7B5FE031CFB613B1CC8
:100A100025331B78FA68D3181B78532B07D03B1C5F
:100A200025331B78FA68D3181B78572B02D13B6A01
:100A30005B423B62BB683A6A1A607B68FA691A607B
:100A4000BD460AB080BDC04680B582B000AF7860B8
:100A500039607B6801331B78191C2F397B681B7840
:100A60001A1C303A131C9B009B185B00CB18181CF7
:100A70000C2102F01DFA0B1CDAB23B681A703B68BD
:100A80005A1C7B68033319787B6802331B78303B30
:100A9000DBB2181C8000C318DB18DBB2CB18DBB24A
:100AA000303BDBB213703B689A1C7B6805331978C6
:100AB0007B6804331B78303BDBB2181C8000C31802
:100AC000DB18DBB2CB18DBB2303BDBB21370BD46B8
:100AD00002B080BD90B589B000AFF860B9607A60AF
:100AE0003B60FB68181C642102F08CF9031CFB615D
:100AF000FB69642252425A43FB68D318BB61BA684F
:100B0000131C1B019B1A9B00181C03F027F8041CE4
:100B1000BB68181CFFF7CEFD031C0A20191CFFF749
:100B20009FFD031C181C03F019F8031C201C191C42
:100B300002F070FB031C7B617B68FA691A60BB6979
:100B4000181CFFF7F1FD021C3B681A607B69181C3A
:100B5000FFF7FAFD021C3B6B1A60BD4609B090BD61
:100B600090B587B000AFF860B9607A60FB68181C78
:100B7000FFF7DAFD031C181C02F0F0FF041CB86834
:100B800002F0ECFF031C181C104902F043FB031C8D
:100B9000201C191C02F0D2F9031C1C1C78680C499B
:100BA00002F038FB031C201C191C02F0C7F9031CBF
:100BB0007B61FB68002B04DA7B69802212065340BC
:100BC00000E07B69181CBD4607B090BD0000704274
:100BD0000000614500000000F0B58BB000AFF86088
:100BE000B9607A603B60B84B3B62F86804F0E8F8A3
:100BF000031C0C1C181C211CAE4BAD4A03F050FE0C
:100C0000031C0C1C181C211CAB4AAC4B03F024FB2E
:100C1000031C0C1C181C211C04F024F9031CFB6091
:100C2000B86804F0CDF8031C0C1C181C211CA14B47
:100C30009F4A03F035FE031C0C1C181C211C9E4A05
:100C40009E4B03F009FB031C0C1C181C211C04F018
:100C500009F9031CBB60786804F0B2F8031C0C1C93
:100C6000181C211C934B924A03F01AFE031C0C1C07
:100C7000181C211C904A914B03F0EEFA031C0C1C2B
:100C8000181C211C04F0EEF8031C7B60386804F08B
:100C900097F8031C0C1C181C211C864B844A03F07B
:100CA000FFFD031C0C1C181C211C834A834B03F002
:100CB000D3FA031C0C1C181C211C04F0D3F8031CD1
:100CC0003B603868B96802F0B3FD031CFB617868CB
:100CD000F96802F0ADFD031CBB61B869FC21890510
:100CE00002F07CFC031C181C00F08CFE041CB8698C
:100CF000FC21890502F072FC031C181C00F082FE26
:100D0000031C201C191C02F069FC031C1C1CFB6842
:100D1000181C00F039FE051C7B68181C00F034FE1E
:100D2000031C281C191C02F059FC031C1D1CF8692B
:100D3000FC21890502F052FC031C181C00F062FE25
:100D4000031C281C191C02F049FC031C1D1CF8691B
:100D5000FC21890502F042FC031C181C00F052FE25
:100D6000031C281C191C02F039FC031C201C191C34
:100D700002F0E4F8031C7B617B69181C00F088FE1C
:100D8000041CFE208005796902F052FD031C181C2A
:100D900000F07EFE031C201C191C00F073FE031CD7
:100DA000181C191C02F0CAF8031C3B61386A396927
:100DB00002F014FC031C1A1C3B6C1A60FB69181C23
:100DC00000F020FE041C7B68181C00F0DDFD031CF5
:100DD000201C191C02F002FC031C1C1CFB68181CC4
:100DE00000F0D2FD051C7B68181C00F00BFE031CF4
:100DF000281C191C02F0F2FB031C1D1CFB68181CAC
:100E000000F000FE061C7B68181C00F0BDFD031CF2
:100E1000301C191C02F0E2FB031C1E1CFB69181C91
:100E200000F0B2FD031C301C191C02F0D7FB031CA0
:100E3000281C191C02F0FCFC031C201C191C00F0CF
:100E400021FE031C181C214902F0C8FB031C181CBE
:100E500003F0B6FF031C0C1C181C211C154B144A74
:100E600003F0FAF9031C0C1C181C211C144A154B26
:100E700002F0D0FE031C0C1C181C211C03F0F2FF16
:100E8000031C7B6205E0786A114902F0D1FC031C67
:100E90007B62786A0E4902F03DF8031C002BF2D108
:100EA0007B6C7A6A1A60BD460BB0F0BDC046C04686
:100EB000182D4454FB2109400000000000806640CA
:100EC00000000000008076400018C7450000344351
:100ED0000000B443C046C046F0B5474680B496B063
:100EE00002AF80239B02181C0121FFF7D1F9802358
:100EF0009B02181C0121FFF7E9F9A54B0C221A608F
:100F0000A34B00229A71A24B03225A71A04B0222DA
:100F10001A719023DA059E4B101C191C00F04EFA32
:100F20009023DB05181C0221012200F0E3FA902334
:100F3000DB05181C0321012200F0DCFA954B9622F8
:100F400092011A60934B00225A61924B0C221A6153
:100F5000904B0022DA608F4B00229A608D4B00226A
:100F60005A608D4A8B4B101C191C00F011FB8A4AE9
:100F700080235B01101C191C00F028FC864A874B5B
:100F8000101C191C00F092FC834A844B101C191C85
:100F9000012200F0D9FB804B181C012100F0A8FBB6
:100FA0007F4B1C221A707E4B01229A707C4B0022D0
:100FB0005A707B4B181C00F091FC7A4BBB647A4B47
:100FC0007B64C046794B1B78DBB2002BFAD0784BA0
:100FD0001B78DBB2002BF5D0764B1B78DBB2002BF5
:100FE000F0D0754B1B78DBB2002BEBD0734B1B782A
:100FF000DBB2002BE6D0724B1B78DBB2002BE1D0CA
:101000000023704A191C11706F4A191C11706F4A25
:10101000191C11706E4A191C11706E4A191C11703E
:101020006D4A13706D4A3B1C3833101C191CFFF7B6
:101030000BFD6B493A1C34323B1C3033081C111C2D
:101040001A1C2C23FFF708FC66493A1C2C323B1C67
:101050002833081C111C1A1C2C23FFF7FDFB786B8E
:10106000396B3A1C24323B1C20333C1C1434009452
:10107000FFF730FDF86AB96A3A1C1C323B1C183382
:101080003C1C10340094FFF725FD796A3A6A7B69AD
:10109000081C111C1A1CFFF763FD031C3B64F96953
:1010A000BA693B69081C111C1A1CFFF759FD031C87
:1010B000FB63386CF96BBA6C7B6C3C1C0C34009491
:1010C0003C1C08340194FFF787FD3B1C4F33002282
:1010D0001A7032E03B1C4F331B787B603B1C4F3354
:1010E0001B783B603B1C4F3318783B1C4F331C78FC
:1010F0003B1C4F331D783B1C4F331E7800233A496D
:101100008C469846414662469155384E9C4662460A
:101110007255374D1E1C2E55364C1D1C2554364815
:101120001C1C3968445435497A688B543B1C4F3336
:101130001A783B1C4F3301321A703B1C4F331B781B
:10114000C72BC7D901231F4A191C11701E4A191C2D
:1011500011701E4A191C11701D4A191C11701D4A6C
:10116000191C11701C4A13700023154A191C1170A8
:10117000124A191C1170104A191C11700D4A191CC1
:1011800011700A4A191C1170094A1370C04618E7F9
:101190000809002010090020004400400501050056
:1011A000E40500200DDD5542994916C04604002093
:1011B0004704002045040020480400204904002082
:1011C0004A04002016000020150000201400002012
:1011D00010000020110000201200002097070020BE
:1011E000F60500200306002040080020B00600207D
:1011F0001C050020E80500207807002028090020B1
:101200000C488546002103E00B4B5B5843500431EA
:101210000A480B4B42189A42F6D30A4A02E00023CE
:1012200013600432084B9A42F9D300F011F8FFF72B
:1012300053FEFEE700200020D854000800000020E4
:101240004404002044040020F0090020FEE70000D0
:1012500080B500AF1B4B1B4A126801210A431A607C
:10126000184B184A5168184A0A405A60154B154ADB
:101270001168164A0A401A60124B124A1168144A41
:101280000A401A600F4B0F4A5168124A0A405A60CE
:101290000C4B0C4AD26A0F218A43DA62094B094A85
:1012A000116B0D4A0A401A63064B064A526B012124
:1012B0008A435A63034B00229A6000F00FF8BD4640
:1012C00080BDC046001002400CB8FFF8FFFFF6FEDC
:1012D000FFFFFBFFFFFFC0FFACFEFFFF80B582B04A
:1012E00000AF00237B6000233B60314B304A126823
:1012F000802149020A431A602D4B1A6880239B0201
:1013000013403B607B6801337B603B68002B04D15A
:101310007A68A023DB019A42EED1254B1A6880231C
:101320009B02134002D001233B6001E000233B609D
:101330003B68012B38D11F4B11221A601C4B1C4AF1
:1013400052685A601A4B1A4A52685A60184B184A27
:101350005168194A0A405A60154B154A526888214B
:1013600049030A435A60124B114A1268802149040A
:101370000A431A60C0460E4B1A6880239B04134030
:10138000F9D00B4B0A4A526803218A435A60084B32
:10139000074A526802210A435A60C046044B5A6801
:1013A0000C231340082BF9D1BD4602B080BDC046C6
:1013B0000010024000200240FFFFC0FF80B586B051
:1013C00000AF7860396000237B6100233B6100231C
:1013D000FB6000237B6185E07B690122101C984043
:1013E000031C3B613B681B683A691340FB60FA6869
:1013F0003B699A4273D13B681B79012B03D03B6850
:101400001B79022B38D17B689B687A6952000321D3
:10141000081C9040021CD2431A407B689A607B688B
:101420009A683B685B79191C7B695B00081C9840D3
:10143000031C1A437B689A607B689B889BB27A691D
:1014400092B20121081C9040021C92B2D24392B287
:1014500013409AB27B689A807B689B889AB23B68FB
:101460009B79191C7B699BB2081C9840031C9BB29A
:1014700013439AB27B689A807B681B687A69520032
:101480000321081C9040021CD2431A407B681A605A
:101490007B681A683B681B79191C7B695B00081C18
:1014A0009840031C1A437B681A607B68DB687A6982
:1014B00092B252000321081C9040021CD2431A40F1
:1014C0007B68DA607B68DA683B68DB79191C7B69CA
:1014D0005B00081C9840031C1A437B68DA607B6938
:1014E00001337B617B690F2B00D875E7BD4606B0E1
:1014F00080BDC04690B585B000AF7860BB1C198038
:101500007B1C1A700023FB600023BB607B1C1A78D5
:10151000BB1C198807230B409B00111C99400B1C16
:10152000FB60BB1C1B88DB089BB21A1CBB1C1B8806
:10153000DB089BB2191C7B6808318900CB58B91CA9
:1015400008880721014089000F20041C8C40211CC1
:10155000C94319407B6808329200D150BB1C1B88DC
:10156000DB089BB21A1C7B6808329200D258FB68D9
:101570001343BB60BB1C1B88DB089BB21A1C7B6837
:1015800008329200B968D150BD4605B090BDC04642
:1015900080B58CB000AF786039600023FB62002317
:1015A000BB6200237B627B681B680122191C91438C
:1015B0000A1C7B681A607B685B687B627A6A474BAF
:1015C00013407B623B689B687A6A13437B627B684B
:1015D0007A6A5A607B681B687B627A6A404B134068
:1015E0007B623B685A683B68DB681A433B681B694F
:1015F00013437A6A13437B627B687A6A1A607B685A
:101600009B687B627A6A374B13407B623B685B69FD
:101610007A6A13437B627B687A6A9A603B1C083360
:10162000181CFEF74FFD7A682F4B9A4204D13B1CE1
:1016300008339B69BB6203E03B1C08339B68BB62B9
:101640007B681A6880231B02134014D0BB6A5A00BF
:101650003B681B68101C191C01F086FB031CFB6215
:10166000BB6A5A003B681B68101C191C01F0C0FBC8
:101670000B1C7B6210E03B681B68B86A191C01F008
:1016800073FB031CFB623B681B68BA6A101C191CC5
:1016900001F0AEFB0B1C7B623B681B685A087B6A3F
:1016A0009A4202D8FB6A0133FB627B681A68802386
:1016B0001B0213400AD0FA6A0F2313405B087B62B7
:1016C000FA6A0A4B1A407B6A1343FB62FB6A9AB2BE
:1016D0007B689A81BD460CB080BDC046FFCFFFFF3E
:1016E000F3E9FFFFFFFCFFFF00380140F0FF0000BF
:1016F00080B582B000AF78600A1CFB1C1A70FB1C1E
:101700001B78002B06D07B681B6801221A437B687C
:101710001A6007E07B681B680122191C91430A1CB0
:101720007B681A60BD4602B080BDC04680B582B0FD
:1017300000AF78607B689B8C9BB2DB05DB0D9BB2B6
:10174000181CBD4602B080BD80B588B000AFF860FF
:10175000B960FB1D1A700023BB6100237B6100236D
:101760003B610023FB61FB68FB61BB689BB21B0A0A
:101770009BB2BB61BA68FF2313407B617B69012286
:10178000111C99400B1C3B61BB69022B03D1FB6907
:101790000433FB6105E0BB69032B02D1FB6908330D
:1017A000FB61FB1D1B78002B06D0FB69FA691168F1
:1017B0003A690A431A6006E0FB69FA6912683969F6
:1017C000C9430A401A60BD4608B080BD80B582B0EA
:1017D00000AF786039607B689A68064B1A407B6876
:1017E0009A607B689A683B681A437B689A60BD463A
:1017F00002B080BDFFEFFFFF80B586B000AF78601C
:1018000039600023FB6000237B610023BB603B1C2D
:10181000133300221A703B689BB21B0A9BB2BB6059
:101820003A68FF2313407B617B690122111C9940B8
:101830000B1C7B61BB68012B05D17B681A687B6937
:1018400013407B610DE0BB68022B05D17B685A68B1
:101850007B6913407B6104E07B689A687B69134075
:101860007B613B681B0CFB60FB680122111C9940EB
:101870000B1CFB607B68DA69FB681340FB607B69CB
:10188000002B07D0FB68002B04D03B1C1333012234
:101890001A7003E03B1C133300221A703B1C1333F5
:1018A0001B78181CBD4606B080BDC04680B584B00C
:1018B00000AF786039600023FB600023BB603B68A9
:1018C0001B0CFB60FB680122111C99400B1CBB60C8
:1018D0007B68BA681A62BD4604B080BD80B584B02A
:1018E00000AF78600023FB607B689B78002B3CD0C6
:1018F000244B7A6812789208D2B2C0329200D35840
:10190000FB607B681B781A1C03231340DB00FF225B
:10191000101C9840031CDA43FB681340FB607B6893
:101920005B789A01FF231A407B681B78191C0323FC
:101930000B40DB00111C99400B1CFA681343FB6041
:10194000104B7A6812789208D2B2C0329200F968CD
:10195000D1500C4B7A681278111C1F220A400121C9
:10196000081C9040021C1A6009E0064A7B681B783C
:10197000191C1F230B40012199408023D150BD46E3
:1019800004B080BD00E100E000B51C4A430083B014
:10199000011C5B08934217DD194A934203DD01F0F5
:1019A00047FF03B000BD694600F064F90323184007
:1019B000012815D002280BD000281AD000980199D0
:1019C000012200F059FFECE7002100F02DFBE8E7D1
:1019D0000098019900F028FB80231B06C018E0E75F
:1019E00001990098012200F047FF80231B06C018D0
:1019F000D7E70098019900F017FBD2E7D80F493FCD
:101A0000FFFF7F7F00B51D4A430083B0011C5B08C8
:101A1000934219DD1A4A934203DD01F009FF03B036
:101A200000BD694600F026F903231840012819D0AB
:101A300002280ED000281AD00098019900F0F4FA7C
:101A400080231B06C018EAE70021002200F014FFE3
:101A5000E5E700980199012200F00EFF80231B06A4
:101A6000C018DCE70199009800F0DEFAD7E700988B
:101A70000199012200F000FFD1E7C046D80F493F8D
:101A8000FFFF7F7F08B500F05BF808BD0000000095
:101A900070B58AB0041C00F069FA274E0023F35693
:101AA000051C01330AD0201C01F0D4F8002805D011
:101AB000201C002101F01AFA002802D1281C0AB0CB
:101AC00070BD012300931D4B201C0193002308933C
:101AD00003F076F934780490059102900391002C7C
:101AE00011D1144B124A06920793684600F03EFF4C
:101AF000002812D0089B002B14D10698079903F0F8
:101B0000B1F9051CDAE70B490948021C0B1C02F06D
:101B1000A3FB06900791022CE7D103F04DFA212395
:101B20000360E7E703F048FA089B0360E5E7C04677
:101B3000000000000000000017000020DC4F00083B
:101B4000F8B5FF224F464646031C4800C0B4400883
:101B5000D205904215DC5C006408944211DCFE263C
:101B6000B605B14244D08E1702273740DE0F3E4300
:101B7000B046002C0DD1022E38D0032E2ED1344881
:101B800003E0081C191C01F0D9F90CBC90469946D9
:101B9000F8BD00281ED090422ED0944222D0201AA8
:101BA000C0153C281CDC00293CDB181C01F032FB72
:101BB00001F000F800F0DCFE4746012F2ED0022F86
:101BC00024D0002FE1D0234901F0B8F9224901F0D7
:101BD0002FFEDAE7002B07DB2048D6E7181CD4E7F6
:101BE0001E48E9E7002BF7DA1D48CEE71A48CCE794
:101BF000181C00F0BDFEC8E7844217D0022EF5D0B5
:101C0000032EBCD0012E19D00020BEE7114901F0EF
:101C100095F9011C104801F00BFEB6E78022120670
:101C20008018B2E73C30C0DA0020C5E7022E0CD0A5
:101C3000032E08D0012E04D00A48A6E78020000613
:101C4000A3E70948A1E709489FE709489DE7C0467F
:101C5000DB0F49C02EBDBB33DB0F4940DB0FC93F53
:101C6000DB0FC9BFDB0F493FDB0F49BFE4CB16C019
:101C7000E4CB1640F0B556464D4644465F46F0B4B8
:101C800042005608AB4A89B0031C0C1C051C964246
:101C900068DDA94A96421ADCA849002B00DCFEE068
:101CA00001F0C6FD0F23321C9A43A54B051C9A4236
:101CB0006AD0A44901F0BCFD011C2060281C01F081
:101CC000B7FDA04901F0B4FD606001204EE09E4ADE
:101CD00096426BDD9D4A96424FDCF715863FFB0529
:101CE000F61A301C01F01AFF01F038FF011C0590B4
:101CF000301C01F09DFD8721C90501F06FFC804675
:101D000001F00CFF01F02AFF061C0690311C404632
:101D100001F08EFD8721C90501F060FC00210790CC
:101D200001F0DEF8002800D1D3E0301C002101F0E2
:101D3000D7F8431E984102231B1A02220092844ABC
:101D400005A80192211C3A1C00F036FA002D0DDA8C
:101D50002268802109065318626823605318636063
:101D6000404203E0002320604B60002009B03CBCEF
:101D700090469946A246AB46F0BD191C01F058FDAD
:101D8000606020600020F1E7724901F051FD724966
:101D9000051C01F04DFD011C2060281C01F048FDD0
:101DA0006D4901F045FD60600120DFE700F002FFB2
:101DB0006A49804601F012FCFC21890501F0BEF859
:101DC00001F0ACFE071C01F0C9FE5C49814601F040
:101DD00005FC011C404601F02BFD5A49804648464F
:101DE00001F0FCFB824640461F2F22DCFF23321C01
:101DF0009A43791E5A4B8900CB589A4219D05146C2
:101E000001F016FD834620605946404601F010FD62
:101E1000514601F00DFD031C6060381C002DA5DA51
:101E2000802109060E1C5E445B18266063607842C0
:101E30009CE7514601F0FCFCFF22C30DF615134050
:101E400083460296F31A082B41DD4249484601F0C9
:101E5000C5FB061C311C404601F0EAFC03900399C7
:101E6000404601F0E5FC311C01F0E2FC3A49061C59
:101E7000484601F0B3FB311C01F0DAFC82465146C2
:101E8000039801F0D5FCFF22C30D0299134083464D
:101E9000CB1A192B32DC039B20609846B4E701F083
:101EA0004DF80F23321C9A43254B051C9A4212D041
:101EB000244901F043F8011C2060281C01F0B8FC03
:101EC000204901F03BF86060012040424EE720606D
:101ED0009AE7032331E71F4901F030F81E49051C3A
:101EE00001F02CF8011C2060281C01F0A1FC1A490B
:101EF00001F024F860600120404237E71949484664
:101F000001F06CFB061C311C039801F091FC80462B
:101F10004146039801F08CFC311C01F089FC124908
:101F2000061C484601F05AFB311C01F081FC824638
:101F3000404664E7D80F493FE3CB1640800FC93FC6
:101F4000D00FC93F43443537800F4943FFFF7F7FA0
:101F5000645000080044353708A3852E84F9223FD9
:101F6000E44F000800A3852E32318D242C49420015
:101F700070B5031C041C52088A423CD8011C002A7C
:101F800037D0002841DB2749C0158A420BD8802171
:101F90000904214240D100225B0001320B42FBD0F8
:101FA00001218A1A80185B025A0A011C80231B0433
:101FB0007F391343CA0726D4802248105B001921B9
:101FC000002600255204AC189C4202DCA5181B1BFD
:101FD000B61801395B0052080029F4D1002B02D059
:101FE00001233340F618FC2376109B05F618C10533
:101FF0008919081C70BD211C01F0F0FA211C00F0A9
:102000009DFF011CF5E75B00D6E701F011FC011C08
:1020100001F000F9011CECE701228018C3E7C0467B
:10202000FFFF7F7FFFFF7F00F8B54F464646574BC7
:10203000C0B44600051C0F1C76089E4248DC01F027
:102040006DFD002800D19EE0291C281C01F0C6FA75
:102050004F49041C01F0C2FA4E4900F06FFF211CE9
:1020600001F0BCFA4C4901F0E3FB211C01F0B6FA87
:102070004A4900F063FF211C01F0B0FA484901F021
:10208000D7FB211C01F0AAFA464900F057FF211C9A
:1020900001F0A4FA8046FC21201C890501F09EFA7B
:1020A0004146061C201C01F099FA391C041C281C0E
:1020B00001F094FA011C201C01F0BAFB011C301C39
:1020C00001F0B6FB011CFE20800501F0B1FB52E0DF
:1020D000291C01F083FA2E49041C01F07FFA2D49D6
:1020E00000F02CFF211C01F079FA2B4901F0A0FB34
:1020F000211C01F073FA294900F020FF211C01F096
:102100006DFA274901F094FB211C01F067FA25497B
:1021100000F014FF211C01F061FA234B80469E421F
:10212000B9DD224B9E422ADCFF231B06F618FE2057
:102130008005311C01F07CFB8146FC21201C8905B7
:1021400001F04CFA311C01F073FB4146061C201CC7
:1021500001F044FA391C041C281C01F03FFA011C50
:10216000201C01F065FB011C301C01F061FB011C0F
:10217000484601F05DFB0CBC90469946F8BD0C4BFF
:102180000C4E9946D9E7FE208005F4E7FFFFFF31AA
:102190004ED747ADF6740F317CF29334010DD03732
:1021A000610BB63AABAA2A3D9999993E0000483F87
:1021B0000000383F0000903EF0B556464D4644467C
:1021C0005F46F0B4DFB0689C0C93C14B0A91A1004C
:1021D000C958D31E0791D917490F0C9CCB18DB1097
:1021E0000B93013C0494DB430B9CDB171C408246A1
:1021F0000498E3430B94DB00251A079C9B18069375
:10220000071919D4699CAB00E4187F19A04601375F
:10221000002622AC08E04146885901F09FFC0135B8
:10222000A0510436BD4207D0002DF4DA002001355C
:10223000A0510436BD42F7D1079C002C00DAFCE225
:10224000079B0C9C0133A7009B005EA89846C3190E
:10225000F43B00214AAC99463B1C8B4657460894F8
:102260009A46049C002C00DA1EE24D465D44002490
:1022700000262968385901F0B1F9011C301C00F022
:102280005DFE0434061C043D5445F2D1089C042133
:1022900058468B442650C345E3D15346BA461F1CCB
:1022A000079C0798A3000DACE418B8460D9483462C
:1022B00057465C460898A4005946039404590029DF
:1022C00026DD5D460EAE013D039AAD00B2464519CE
:1022D0009244B946EE218905201C01F07FF901F0F6
:1022E0001DFC01F03BFC8721C905071C01F076F9B4
:1022F000011C201C01F09CFA01F010FC296801C6A9
:10230000381C00F01BFE043D041C5645E2D14F462C
:10231000201C069900F0BCFCF8218905041C01F082
:102320005DF900F04BFC8221C90501F057F9011C51
:10233000201C01F07DFA041C01F0F0FB061C01F0EA
:102340000DFC011C201C01F073FA069C051C002CDE
:1023500000DC8BE15A46013A92000EA8835808210E
:10236000091B181C0841361888401B1A0EA98B50EF
:102370000722121B13410593059C002C33DD5846A0
:102380000136002800DCA0E1039C80220EAB520045
:102390001919FF200024944608E0002A03D064465F
:1023A000A21A1A60012404338B4208D01A68002C48
:1023B000F3D0821A1A60043301248B42F6D10698B6
:1023C00000280DDD012800D15BE1022808D15B4621
:1023D000013B9B000EA9C9583F220A400EA8C250DB
:1023E0000599022976D0281C002100F079FD0028EB
:1023F00000D189E05946079C01398C420CDC0EA8BB
:102400008D0043190D9800221C68043B224383422F
:10241000FAD1002A00D0F5E1079B0EA8013B9B00F2
:10242000C358002B00D006E2079B0122023B9B0011
:10243000C318043B596801320029FAD05B465A445C
:102440000133099293423DDC089C58469B00E418F6
:102450000B99131A9B0005930B1C5B44A246699CC5
:102460009B000C98E3180393031C5B449B0022A978
:10247000C91800228B469146039C231C4B44586884
:1024800001F06CFB5946049C49440860002C1CDB9D
:102490000D1C002400262968385901F09FF8011C02
:1024A000301C00F04BFD0434061C043D4445F2D1C1
:1024B000514604310422059C8A469144043940C1A6
:1024C000A145D9D109988346F3E60026F0E7C04636
:1024D0007C530008FE20291C800501F0A9F9051C89
:1024E000002C00D17FE7FE200699800500F0D0FB8C
:1024F000011C281C01F09CF9051C281C002100F07F
:10250000EFFC002800D075E7069C281C614200F013
:10251000BFFB8721C905D946051CB34600F004FD61
:10252000002800D18EE1EE218905281C01F056F823
:1025300001F0F4FA01F012FB8721C905041C01F037
:102540004DF8011C281C01F073F901F0E7FA039A19
:102550000EA9885006984B46083001330690201C7F
:102560009D00039301F0DAFA0EA94851FE20800580
:10257000069900F08DFB039C051C002C4EDBA24647
:102580000120A3008244089C5146E4188F000EAA43
:102590007F42D618A146B8460024371C4E4638590B
:1025A00001F0DCFA291C01F019F8EE2130518905FF
:1025B000281C01F013F8043C051C4445EFD136AC4F
:1025C000079A594600200494AA4CB14680460691C9
:1025D000934658460027002813DB002600270025D5
:1025E00002E0043645450CDC4B469959A05900F0F1
:1025F000F5FF011C381C00F0A1FC0135071CAB45A0
:10260000EFDA404604998300CF50012204235B4255
:1026100090449944C245DCD106998B46689C022CB3
:1026200000DD87E0002C52DC16D1039C002C00DA80
:102630001EE136A8A400041935AD00202168043C31
:1026400000F07CFCAC42F9D1059C002C02D080212A
:10265000090640180A9C20605946072008405FB0D0
:102660003CBC90469946A246AB46F0BD069C002C69
:1026700011D15B46013B9B000EA8C3581B1205936A
:102680007AE65B46013B9B000EA9C9587F220A40AF
:102690000EA8C250A4E6FC21890500F045FC0028E4
:1026A0000CD1002405949EE6089C0421584600267F
:1026B0008B442650C34500D0D3E5EEE502245846AE
:1026C00005940136002800DD5EE6002477E6039CD1
:1026D0000021002C0DDB039C36A8A3000021C418A8
:1026E00035AD081C2168043C00F028FCAC42F9D14F
:1026F000011C059C0B1C002C02D0802000060B182E
:102700000A9C3698236001F093F8039C002C08DDA6
:10271000039937AC8D00651902CC00F00FFCAC4278
:10272000FAD1059C002C02D08021090640180A9C91
:10273000606091E7689C032C00D08DE7039C002C1F
:1027400000DC91E036AC0494039B039C013BA500A4
:10275000049C9B00675935A8E418A1468046261CB6
:10276000AA4600E0271C3568391C281C00F0E6FB4F
:10277000041C211C281C01F05BF8391C00F0DEFB56
:10278000043EB06074604645ECD1039C5546002081
:10279000012C24DD049C4E466759D04600E0271CDE
:1027A0003568391C281C00F0C9FB041C211C281C9E
:1027B00001F03EF8391C00F0C1FB706004983460F1
:1027C000043EB042EBD1049C4546261C65190436F4
:1027D00000202968043D00F0B1FBB542F9D1059C09
:1027E000002C38D0369A8024240613190A9C8021A4
:1027F0002360049C090663680A9C5B1840186360A8
:10280000A06029E7069C0EA84359083CB3460391F3
:102810000694002B00D0A9E60A1C013A9300C318C5
:10282000211C00E0013A043B5C6803920839002C4B
:10283000F8D006919AE6012200E60C9CA7004AAC6B
:1028400008942DE5281C01F069F9039C0EAA10518B
:102850004C4603948AE636990A9C2160049C0A99A6
:10286000646888604C60F7E636AC00200494B6E7F4
:102870000020E9E688530008F8B5354B4F46464638
:102880004500C0B4041C0F1C90466D089D4205DC39
:1028900001F044F9031C201C002B46D0211C201CF5
:1028A00000F09CFE211C051C00F098FE2949061C26
:1028B000281C00F093FE284900F0BAFF291C00F004
:1028C0008DFE264900F03AFB291C00F087FE2449C2
:1028D00000F0AEFF291C00F081FE224900F02EFB23
:1028E00043468146002B24D0FC218905381C00F08A
:1028F00075FE49468046301C00F070FE011C4046C3
:1029000000F096FF291C00F069FE391C00F090FFD2
:102910001549051C301C00F061FE011C281C00F04C
:102920000DFB011C201C00F083FF0CBC9046994657
:10293000F8BD4946281C00F051FE0B4900F078FF15
:10294000311C00F04BFE211C00F0F8FAEDE7C04608
:10295000FFFFFF31D3C92E2F342FD7321BEF38366C
:10296000010D50398988083CABAA2A3E00207047E7
:10297000F0B5794B4746450080B4041C061C6D0831
:102980009D420BDDFF23DB059D4200DD75E0002845
:1029900000DCA1E0714804BC9046F0BD704B9D4244
:1029A0007CDC704B9D426CDD01235B429846211C10
:1029B000201C00F013FE071C391C00F00FFE6A49B2
:1029C000051C00F00BFE694900F0B8FA291C00F064
:1029D00005FE674900F0B2FA291C00F0FFFD6549C9
:1029E00000F0ACFA291C00F0F9FD634900F0A6FAEA
:1029F000291C00F0F3FD614900F0A0FA391C00F039
:102A0000EDFD5F49071C281C00F0E8FD5D4900F062
:102A10000FFF291C00F0E2FD5B4900F009FF291CB3
:102A200000F0DCFD594900F003FF291C00F0D6FD41
:102A3000574900F0FDFE291C00F0D0FD4346011C63
:102A400001334BD04346381C9D0000F077FA211C1F
:102A500000F0C4FD4F4BE95800F0EAFE211C00F0E5
:102A6000E7FE4D4B011CE85800F0E2FE002E00DBB3
:102A700091E780231B06C0188DE7211C00F05EFA49
:102A800089E7464900F05AFAFE21890500F042FA2A
:102A9000031C201C002B00D07DE785E700F08AF89E
:102AA0003F4B041C9D4224DC3E4B9D4242DC211CDA
:102AB00000F044FAFE21890500F0BAFE8021051CD1
:102AC000C905201C00F03AFA011C281C00F0A2FBEA
:102AD0000023041C98466AE733485CE7381C00F082
:102AE0002DFA211C00F07AFD011C201C00F0A0FE34
:102AF00051E72E4B9D4215DCFF21890500F098FE21
:102B0000FF21051C8905201C00F068FDFE218905B8
:102B100000F014FA011C281C00F07CFB0223041CAA
:102B2000984644E7211C224800F074FB0323041C50
:102B300098463CE7FE21890500F07AFEFE21051C3F
:102B40008905201C00F0FAF9011C281C00F062FB2A
:102B50000123041C98462AE7FFFF7F50DB0FC93F83
:102B6000FFFFDF3EFFFFFF30D769853C59DA4B3D61
:102B7000356B883D6E2EBA3D2549123EABAAAA3E62
:102B800021A215BD6BF16E3D95879D3D388EE33DCD
:102B9000CDCC4C3EB4530008C4530008CAF249716E
:102BA000FFFF973FFFFF2F3FDB0FC9BFFFFF1B401A
:102BB000000080BF400040087047C046F0B54300A9
:102BC000474680B45F081B0E1E1C7F3E041C162E59
:102BD00017DC8046002E1DDB1A4F051C37410742CB
:102BE0000BD0194900F0AAF9002100F093F9002850
:102BF00003D0002C1CDB4546BD43281C04BC90467A
:102C0000F0BD124B051C9F42F7D9211C00F096F92C
:102C1000051CF2E70C4900F091F9002100F07AF967
:102C2000002803D0002C09DB0025E6E7251CE4E79B
:102C300080231B0433411E19B046DCE7002FF5D07A
:102C4000034DDAE7FFFF7F00CAF24971FFFF7F7F84
:102C5000000080BF43005B080220002B00D17047BA
:102C6000074A04209918074A9142F8D9064A591E82
:102C700003209142F3D9054A9B1858425841EEE788
:102C8000000080FFFFFFFF7EFEFF7F0000008080CE
:102C900070B5031C4400061C0D1C60081A1C00289B
:102CA0000FD0274988420ED8264A904211D9240EC7
:102CB0006419FE2C2ADC002C19DD234BE2051E4092
:102CC0003243101C70BD181C191C00F037F9021C8F
:102CD000F7E79821181CC90500F080FC1B4A031C6B
:102CE00095421CDB4400240E061C193CE0E7221C24
:102CF000163219DA164A954208DC191C154800F0FC
:102D00002DF8144900F06AFC021CDAE7191C12487D
:102D100000F024F8104900F061FC021CD1E70D49D5
:102D200000F05CFC021CCCE7074A201C193016405E
:102D3000C005CC213043890500F050FC021CC0E7DF
:102D4000FFFF7F7FFFFF7F00FFFF7F80B03CFFFF23
:102D500050C300006042A20DCAF249714000C90F81
:102D6000C907400808437047002934D001230022D6
:102D700010B488422CD301242407A14204D28142FA
:102D800002D209011B01F8E7E400A14204D281420A
:102D900002D249005B00F8E7884201D3401A1A4387
:102DA0004C08A04202D3001B5C0822438C08A042BE
:102DB00002D3001B9C082243CC08A04202D3001B74
:102DC000DC082243002803D01B0901D00909E3E7EE
:102DD000101C10BC7047002801D00020C04307B46D
:102DE000024802A14018029003BDC046D90000006D
:102DF0000029F0D003B5FFF7B9FF0EBC4243891A92
:102E00001847C046002941D010B4041C4C40A446C9
:102E100001230022002900D54942002800D5404264
:102E200088422CD301242407A14204D2814202D239
:102E300009011B01F8E7E400A14204D2814202D259
:102E400049005B00F8E7884201D3401A1A434C0856
:102E5000A04202D3001B5C0822438C08A04202D38C
:102E6000001B9C082243CC08A04202D3001BDC08B4
:102E70002243002803D01B0901D00909E3E7101CF5
:102E80006446002C00D5404210BC7047002806D094
:102E900003DB0020C043400801E08020000607B4A7
:102EA000024802A14018029003BDC046190000006C
:102EB0000029EBD003B5FFF7A7FF0EBC4243891AE8
:102EC0001847C0467047C0468446081C6146FFE765
:102ED0001FB500F037FB002801D40021C8421FBDF8
:102EE00010B500F0BDFA4042013010BD10B500F041
:102EF00029FB002801DB002010BD012010BDC046C9
:102F000010B500F01FFB002801DD002010BD0120DE
:102F100010BDC04610B500F0CDFA002801DC00203D
:102F200010BD012010BDC04610B500F0C3FA002846
:102F300001DA002010BD012010BDC046F8B54302E3
:102F40004400C50F4E024800240E2A1C9B09000EA7
:102F5000C90FB6098D425BD0221A002A00DC89E035
:102F600000281DD1002E00D075E0580704D00F2294
:102F70001A40042A00D004338021C90419402A1CB5
:102F800000293AD00134FF2C00D17FE09B015B0A7D
:102F90005B02E4B2E405580AD20720431043F8BDAF
:102FA000FF2CE2D08021C9040E431B2A00DD2DE155
:102FB000311C2020D140821A9640721E96410E4349
:102FC0009B1B5801D1D59B019F09381C01F0D6FFEE
:102FD000421F974094425BDC141B1F231B1B3A1CAF
:102FE0009F40611C3B1CCA405F1EBB411343002431
:102FF000BBE7131EB9D100230022DB08FF2C04D14C
:10300000002B43D08020C00303435B025B0ABFE771
:10301000211A002940DD002823D0FF2CA5D08020D4
:10302000C00406431B2900DDEEE0301C2027C84009
:10303000791A8E40711E8E4106439B19590100D4A6
:1030400093E70134FF2C55D0714901221A400B40FF
:103050005B08134389E7013A002AB1D0FF2CA4D1C1
:1030600083E7002E00D180E701390029E5D0FF2C4D
:10307000D8D17AE7002A1BD1621CD2B2012A4BDDDB
:103080009F1B7A0123D5F71A0D1C9EE700237FE7CB
:103090005F4BA41A3B4068E7002946D1611CC8B2C7
:1030A000012829DDFF2924D0F3185B080C1C5CE7FC
:1030B000002C13D0FF2818D08024E404524223436C
:1030C0001B2A4DDD0123F31A041C0D1C79E7002F88
:1030D00000D07AE70023002200248EE7002B3BD0AB
:1030E000D243002AEFD0FF28EAD1331CFF240D1C65
:1030F0003BE7FF24002380E7002C5CD1002B00D1AC
:1031000080E0002E00D130E79B19580100D42CE755
:103110003F4A0124134028E7002C15D1002B40D151
:10312000002E63D0331C0D1C1FE7002C21D1002B77
:1031300054D0C943002904D0FF284CD01B2958DDA6
:1031400001239B19041C79E7002B19D1002E48D0CC
:10315000331C0D1CFF2408E7331C041C0D1C04E762
:103160001C1C2025D440AA1A93405A1E9341234385
:10317000A9E7FF282FD08024E40449422343DDE758
:10318000FF24002E00D1F0E68022DB08D203134298
:1031900004D0F608164201D1331C0D1CDB00FF24BD
:1031A000E3E6002E00D1E0E69A1B500100D420E7B0
:1031B000F31A0D1CD9E6002B0DD0FF24002E00D1F0
:1031C000D3E68022DB08D2031342E7D0F60816428A
:1031D000E4D1331CE2E7331CFF24C6E6331C041C95
:1031E000C3E6802300229B04FF2406E7231C002261
:1031F00003E71C1C2027CC40791A8B40591E8B41B9
:1032000023439EE7331CB0E6012616E70126D7E6E6
:10321000FFFFFFFBF0B55F4656464D464446F0B40F
:1032200046024500C00F85B00F1C760A2D0E804661
:1032300041D0FF2D26D08024240400212643F6000F
:103240007F3D89468B46F90F7C027800640A000EA8
:1032500000918A463CD0FF2834D080231B041C43B5
:103260000023E4007F380193009F4346019A7B408E
:1032700049469C4611430F2900D971E0764F8900D9
:103280007F58BF46002E3ED10822022391469B461E
:10329000D9E75A46341CC24601920199022937D017
:1032A000032900D1CFE0012900D0ABE053460B4009
:1032B0000022002632E0002E19D104210122894685
:1032C0009346C0E7221C531E9A4102320192CBE77B
:1032D00001270197002CC7D0201C01F04FFE431F8F
:1032E0009C4076235B420021181A0191BCE7301CF8
:1032F00001F044FE7625431F9E406D4200232D1AA7
:1033000099469B469FE70C23032199468B469AE7F3
:10331000D446012367463B40FF2200267602D205B1
:10332000700ADB071043184305B03CBC9046994631
:10333000A246AB46F0BD80260023F603FF22EDE750
:1033400000220026EAE78020C00306423BD0044268
:1033500039D1061C26437602760A009BFF22DDE760
:10336000281A039076016401A64239D3361B1A222B
:1033700001230120311C5B007600002901DBB442EF
:1033800001D8361B0343013A002AF3DC741EA64120
:10339000341C1C43039A7F32002A27DD630704D0C4
:1033A0000F232340042B00D00434270103D52B4BDB
:1033B000039A1C408032FE2A0BDD012361460B403C
:1033C000FF220026AAE706437602760A4346FF223A
:1033D000A4E7A40101236746660AD2B23B409DE7F9
:1033E000039F1B22013F03970023C2E77E23039F15
:1033F0005B42DB1B1B2B07DD012361460B400022D8
:1034000000268BE7D446C5E7221CDA40039B9E3397
:103410009C40231C5C1EA34113435A0704D00F2277
:103420001A40042A00D004335F0105D50123614608
:103430000B400122002671E79E01624601231340E2
:10344000760A00226AE78026F60326437602760A89
:103450005346FF2262E7C046D4530008FFFFFFF740
:103460004A02430270B55C0A550A43004A001B0E2B
:10347000C60F120EC90FFF2B05D0FF2A08D001205E
:1034800093420BD070BD0120002CFBD1FF2AF6D156
:103490000120002DF6D101209342F3D1AC42F1D1AD
:1034A0008E4205D0002BEDD1201C441EA041E9E73F
:1034B0000020E7E74A024302F0B55C0A550A4300E0
:1034C0004A001B0EC60F120EC90FFF2B31D0FF2A68
:1034D00034D0002B16D1604260418446002A14D0BB
:1034E000002820D18E4217D1934215DC04DBAC4278
:1034F00012D80020AC4212D27042704140420123E7
:1035000018430CE0002AEDD194466F426F416046AB
:10351000002805D1002FE5D0704201231843F0BDEB
:103520000020002FFBD1484248414042012318436C
:10353000F5E7002CCBD002204042F0E7002DC8D0A8
:10354000F9E7C0464A024302F0B55C0A550A430057
:103550004A001B0EC60F120EC90FFF2B27D0FF2AE1
:1035600029D0002B10D0002A15D194466F426F410C
:103570006046002815D00020002F04D14842484161
:10358000404201231843F0BD604260418446002A56
:10359000ECD00028F2D18E4211D0704201231843A2
:1035A000F1E7002FF7D0704201231843EBE7022028
:1035B000002CE8D1D3E70220002DE4D1D1E79342DB
:1035C000EBDC04DBAC42E8D80020AC42DBD270423A
:1035D0007041404201231843D5E7C046F0B55F462D
:1035E00056464D464446F0B44402460083B00F1C94
:1035F000640A360EC50F002E41D0FF2E22D0802344
:103600001B0400201C43E4007F3E82468046391C98
:103610004B007F02C90F7F0A1B0E8B463BD0FF2B4E
:1036200034D0802212041743FF007F3B00215A460A
:103630006A40019252460A430F2A63D87A489200A0
:1036400082589746002C3FD1082202239246984682
:10365000DDE70195404602282AD1019A012515404F
:10366000FF2300246402DB05600AED0718432843AA
:1036700003B03CBC90469946A246AB46F0BD002C38
:1036800027D10420012282469046C0E7391C4A1EF9
:1036900091410231CBE70121002FC8D0381C01F045
:1036A0006DFC431F9F4076235B421B1A0021BEE73F
:1036B000032800D1AEE001284FD1019842461040C6
:1036C000C5B200230024CDE70C2303209A46804690
:1036D0009DE7201C01F052FC7626431F9C40764259
:1036E0000023361A9A46984691E780240025E40381
:1036F000FF23B7E75B463C1C01938846AAE73C1CC6
:103700008846A7E7250C24043A0C240C3F04F6183D
:103710003F0C211C231C794353436F435543FB1833
:103720000A0C9B18B1469F4202D980225202AD1862
:1037300009041A04090C521894011B0C611E8C41D7
:10374000920EED181443AD012C43230105D501223F
:1037500063080120144081441C434B467F33002BF7
:103760002DDD600704D00F222240042A00D004344B
:10377000220103D52D4B1C404B468033FE2B17DD19
:10378000019B01251D400024FF236BE78020C0031F
:10379000044208D0074206D1041C3C436402640A78
:1037A0005D46FF235EE704436402640AFF2359E792
:1037B0000198A4010125640ADBB2054052E77E238B
:1037C0005B424A469B1A1B2B05DD019B01251D40D0
:1037D0000024002346E7221CDA404B469E339C40DF
:1037E000231C5C1EA3411343580704D00F221A4028
:1037F000042A00D004335A0105D5019B01251D4040
:10380000002401232EE701989C010125640A05404C
:10381000002327E78027FF03019B3C436402012527
:103820001D40640AFF231DE714540008FFFFFFF743
:10383000F8B5C20F430244004D024800240E161C86
:103840009B09000EC90FAD09FF2800D183E00127B5
:1038500079408A425CD0221A002A00DC8EE00028DF
:103860001ED1002D00D07AE0580704D00F221A4054
:10387000042A00D004338021C904012219403240B7
:1038800000293AD00134FF2C00D183E09B015B0A70
:103890005B02E4B2E405580AD20720431043F8BDA6
:1038A000FF2CE1D08021C9040D431B2A00DD31E14A
:1038B000291C2020D140821A95406A1E95410D4353
:1038C0005B1B5801D0D59B019F09381C01F056FBAA
:1038D000421F974094425FDC141B1F231B1B3A1CA2
:1038E0009F40611C3B1CCA405F1EBB411343002428
:1038F000BAE7131EB8D100230022DB08FF2C04D145
:10390000002B47D08020C00303435B025B0ABFE764
:10391000211A002944DD002827D0FF2CA4D08020C4
:10392000C00405431B2900DDF2E0281C2027C84005
:10393000791A8D40691E8D4105435B19590100D4E8
:1039400092E70134FF2C59D0734901221A400B40F1
:103950005B08134388E7002D00D07AE777E7013A48
:10396000002AADD0FF2CA0D17EE7002D00D17BE74F
:1039700001390029E1D0FF2CD4D175E7002A1BD1F1
:10398000621CD2B2012A4BDD5F1B7A0123D5EF1AEC
:103990000E1C9AE700237BE75F4BA41A3B4063E7CA
:1039A000002946D1611CC8B2012829DDFF2924D095
:1039B000EB185B080C1C57E7002C13D0FF2818D01D
:1039C0008024E404524223431B2A4DDD0123EB1AD9
:1039D000041C0E1C75E7002F00D076E700230022A0
:1039E00000248AE7002B3BD0D243002AEFD0FF28E7
:1039F000EAD12B1CFF240E1C36E7FF2400237CE7B2
:103A0000002C5CD1002B00D180E0002D00D12BE7F1
:103A10005B19580100D427E73F4A0124134023E7EC
:103A2000002C15D1002B40D1002D63D02B1C0E1C77
:103A30001AE7002C21D1002B54D0C943002904D00F
:103A4000FF284CD01B2958DD01235B19041C75E7A6
:103A5000002B19D1002D48D02B1C0E1CFF2403E78E
:103A60002B1C041C0E1CFFE61C1C2026D440B21A82
:103A700093405A1E93412343A9E7FF282FD0802467
:103A8000E40449422343DDE7FF24002D00D1EBE6A7
:103A90008022DB08D203134204D0ED08154201D185
:103AA0002B1C0E1CDB00FF24DEE6002D00D1DBE624
:103AB0005A1B500100D41CE7EB1A0E1CD4E6002B55
:103AC0000DD0FF24002D00D1CEE68022DB08D203EA
:103AD0001342E7D0ED081542E4D12B1CE2E72B1C82
:103AE000FF24C1E62B1C041CBEE6802300229B049D
:103AF000FF2402E7231C0022FFE61C1C2027CC40E9
:103B0000791A8B40591E8B4123439EE72B1CABE651
:103B1000012512E70125D3E6FFFFFFFB4302590A07
:103B20004300C20F1B0E00207E2B0DDD9D2B0CDCF5
:103B3000802000040143952B0ADC9620C31AD9404B
:103B40004842002A00D1081C7047034BD018FBE7FD
:103B5000963B9940F4E7C046FFFFFF7F70B5041E17
:103B60003CD0C60F00D04442201C01F007FA9E232F
:103B7000251C1B1A962B0CDC083884406402640A4E
:103B8000DBB2321C6402DB05600AD2071843104323
:103B900070BD992B0ADD0522121A211CD1400A1C86
:103BA000011C1B318D40691E8D411543052801DD27
:103BB000421F9540164C2C406A0704D00F22154036
:103BC000042D00D0043461010CD59F23181AFF285E
:103BD0001AD0A401640AC3B2321CD3E70022002326
:103BE0000024CFE7E408FF2B04D06402640ADBB2B0
:103BF000321CC7E7002C04D08020C00304436402B9
:103C0000640A321CFF23BDE7321CFF230024B9E7FE
:103C1000FFFFFFFBF8B55F46564644464D46F0B4FD
:103C20000C034D00CE0F610A440F2143C40018035A
:103C300080465800400D8246D80F84464046400AD0
:103C4000530F0343D0006D0D371C83465246664523
:103C500000D1A4E0AF1A002F00DC09E1002A3BD11B
:103C6000184300D0EAE0630700D187E00F23234028
:103C7000042B00D182E0221DA242A4416442802391
:103C800009191B040B40371C141C002B00D17CE0CD
:103C9000CE4B01359D4200D105E1CD4BE4081940E2
:103CA0004807490204430B0B002000211B031A0B99
:103CB0000B0D6D051B0513436A08C64DFF071D401C
:103CC00015436D006D08291C3943201C3CBC9046EF
:103CD0009946A246AB46F8BDBC488542C3D0802079
:103CE00000040343382F00DDF0E01F2F00DD24E146
:103CF0002020C01B1A1C814682405846F8400243CF
:103D0000944658464A469040421E9041FB406246C7
:103D100002431F1CA21A9442A4416442C91B091BFE
:103D2000141C0B029FD549024F0A002F00D1C8E096
:103D3000381C01F023F9021C083A1F2A00DDB5E007
:103D40002821091A201C9740C840074394409542F7
:103D500000DDB2E0551B691C1F2900DDDCE01F22DD
:103D6000551B3B1C221CAB40CA40AC40651EAC41FD
:103D70001343CF401C43391C002574E780231B04E8
:103D80000B40371C002B00D082E7904B4807E4081B
:103D90000443C9089D4248D009030B0B84E7AA1AC3
:103DA0009446002A00DC98E05046002852D087480C
:103DB000854200D157E78020000403436246382A39
:103DC00000DDFCE01F2A00DD4AE120226046101AD7
:103DD0001A1C82408246914658466246D0404A4666
:103DE00002439046584652469040421E90414246F9
:103DF00002436046C3401219A242A44164425918CA
:103E00000919141C080200D42DE7704B01359D429E
:103E100000D122E16E4B60081940012323401C1C95
:103E20000443CB071C4349081DE7231C0B433AD02E
:103E300080231B030B431B031B0B35E7013F002FA4
:103E400065D15846221A9442A4416442C91A091BFA
:103E5000141C66E75846184300D104E70122524279
:103E600094446046002800D0C5E058460219C3E7D4
:103E7000002F73D1681C4005400D012800DCDEE0F6
:103E80005A46A21A9442BF41C81A7F42C71B380241
:103E900000D489E05A46141BA3459241591A524254
:103EA0008F1A664641E700230024FDE6271C2838C8
:103EB00087400024954200DC4CE74549AD1A394063
:103EC000D1E6201C01F05AF8203034E75A461A4354
:103ED000531E9A41D2B200271CE7002A00D0DCE032
:103EE000681C4205520D012A00DC8DE0374DA842C6
:103EF00000D1F3E05D462A19A242A4416442591858
:103F00000919CC07520814434908051CABE62F4891
:103F1000854200D0E6E6A6E62B1C1F3B3A1CDA40A1
:103F2000131C20296CD03F22551BAF403C43601E20
:103F300084411C430021002595E6381C20381A1CBA
:103F4000C240101C202F5DD04022D71BBB405A46D8
:103F50001A43531E9A4102430027DBE6002D3BD053
:103F60001A4DAA4500D193E080252D047F422943B4
:103F7000382F00DDACE01F2F00DD29E12025ED1BEF
:103F8000081C261CA840FE40AC400643651EAC4100
:103F90003443F9405D462C1BA34592415B1A5242C3
:103FA000991A55466646BCE6131C3B43141C002B6D
:103FB00000D0BAE60027002100250024E5E65A4695
:103FC0001A43531E9A41D2B2002314E7FF070000A0
:103FD000FFFF7FFFFFFF0F800D1C254358D0FF43DD
:103FE000002F51D1041BA3459241591A5242891AFC
:103FF0005546664695E69648854200D0DEE632E6AE
:10400000002793E70023A2E7081C2043002D00D0DF
:10401000C4E0002800D1F7E05846184300D122E65A
:1040200058460219A242A441644259180919141CA5
:104030000A0200D417E6874B0125194013E6081C35
:104040002043002D39D1002871D15946194303D09E
:10405000191C5C46664606E600270021002494E60B
:10406000604620381A1CC24060469146202800D184
:10407000ACE04022121A93405A461A43531E9A410A
:104080004B461A430023B6E6714DAA4500D06FE7B0
:10409000191C5C4655466646E5E5002D22D10D1CEF
:1040A000254377D0D543002D71D15C445C459241C6
:1040B0005918524289185546A4E600284DD1594650
:1040C000194300D194E0191C5C466646604DCAE570
:1040D0000C43611E8C41E4B200215BE7051C00210A
:1040E000002452E65A4DAA4554D05542802210046D
:1040F0000143382D00DD81E01F2D00DD92E02022FC
:10410000501B0A1C84468240201CE8400243904613
:1041100062469440601E844142461443E9405C4438
:104120005C459241CB185242991855466AE658466A
:10413000184300D197E55846271ABC429241C81A45
:104140005242801A020266D55846041BA34592418A
:10415000591A5242891A664685E55846184333D0A3
:104160004807E40804438020C9080003014208D03E
:10417000DD08054205D15946CA085C071443291CCD
:104180006646630FC9001943E400314D6BE5304AC0
:104190009245AED1191C5C46554664E5002836D0E0
:1041A0005846184310D080254807E408C9082D0355
:1041B00004432942E5D0D8082842E2D15D46EA0806
:1041C0005C071443011CDCE7214D4CE5002353E759
:1041D0003D1C203D0A1CEA40151C202F34D04026EF
:1041E000F71BB9400C43611E8C412C430021D1E6E2
:1041F00080210027C903164D0024C6E50C43611E2B
:104200008C41E4B200218AE7191C5C462BE5191C9D
:104210005C460F4D27E5031C3B4300D11CE7011C06
:104220003C1C20E52020404240190A1CC240904618
:10423000202D0BD04020451BA9400C43611E8C4112
:1042400045462C4300216AE70021CBE70021F4E733
:10425000FF070000FFFF7FFFF0B5564644465F466C
:104260004D46F0B41F1C0B031B0B98464B0087B048
:10427000041C81465B0DC80F161C9A460090002B4B
:1042800051D06A4B9A4531D08022414652030A43AD
:10429000630FD2001A43664B90460025E200914618
:1042A0009A44002402953B031B0B9B46FD0F7B00A9
:1042B000311C5B0D019560D05C4A934254D0802143
:1042C000584649030143720FC9001143584A8B46AF
:1042D0009B18F1000020009A04436A4003920F2CBF
:1042E00000D9ADE0534EA4003459A74640460443DC
:1042F0006ED1002102250824884689460295D2E71E
:10430000009C0298C34649460194022864D00328C1
:1043100000D1ABE2012800D038E2019A002402402B
:104320000025A14660E0434623434AD0404600288A
:1043300000D1C0E100F022FE031E272B00DDB3E117
:1043400028210D1A211C083B4246E9409A400D1CC9
:104350001543221C9A40A8469146374B00251B1A4C
:104360009A46002402959EE75A4616430320002EE3
:10437000B1D1B34600210220ADE75A4632431BD0EB
:104380005B46002B00D18AE1584600F0F7FD272854
:1043900000DD7DE12822171A011C321C08395B461A
:1043A000FA408B40171C1F43331C8B40BB46191C23
:1043B000214B1B1A00208EE70027BB46002101205D
:1043C00089E70020012504248046814602956AE79A
:1043D00003250C24029566E7019C0394039D0122AA
:1043E0002A400024114DA146002000212403260B61
:1043F0000C0D2405114B34432D0523402B435B004A
:104400005B08D207191C4846114307B03CBC9046D4
:104410009946A246AB46F0BD002280242403914673
:10442000024DE1E700240025A146DDE7FF0700007B
:1044300001FCFFFF545400080DFCFFFFFFFF0F803D
:104440005546ED1A0495D84500D953E100D14EE107
:10445000049C0025013C4E4604944746A946584614
:1044600003020C0E1C430902250C23041B0C0091B3
:10447000381C291C0193FEF777FC019983464143C0
:10448000381C8A46291CFEF7B3FC330C0904194377
:104490008A450CD95B460919013B8C4200D947E19A
:1044A0008A4500D844E102225242934409195346F6
:1044B000CB1A181C291C9846FEF756FC071C0198BD
:1044C000291C784382464046FEF792FC36040B04D2
:1044D000360C33439A4509D91B197A1E9C4200D9E0
:1044E00024E19A4500D821E1023F1B195E463204BF
:1044F0001743380CBB46009E009F51463F0C3204C8
:104500005B1A5946BA46120C0F043F0C90465146AE
:104510007A434F434146414356467043CF19160CE8
:10452000BE19B14202D980277F02C019310C120492
:104530003604120C4018B618834200D2C4E000D1F1
:10454000BEE0191A4846861BB145BF417F42CF1BCA
:10455000A74200D113E1291C381CFEF705FC019984
:1045600002904143381C8946291CFEF741FC330C5C
:104570000904194389450CD9029B0919013B8C4256
:1045800000D9FFE0894500D8FCE0029F0919023FED
:1045900002974F46CF1B381C291C0597FEF7E4FBFA
:1045A000071C0198291C784381460598FEF720FCDA
:1045B00036040904360C0E43B14509D936197B1E61
:1045C000B44200D9E0E0B14500D8DDE0023F361941
:1045D000029D4946761A290439430B0457460A0CB2
:1045E0001B0C40464546584355437B437A43EB18E2
:1045F000070CDB199D4202D980256D0252191D0C52
:1046000000041B04000C52191B18964235D300D12C
:10461000FCE001231943049E994FF519002D00DC9D
:10462000A1E0480709D00F230B40042B05D00B1D38
:104630008B42894149428B44191C5A46D20107D505
:10464000904B5C46049E80271C40FF00A346F51952
:104650008D4B9D427ADD039C0122224000248B4D2C
:10466000A146C1E680242403474627424CD13C435F
:104670002403240B009A854DB6E63619481EB44231
:104680005ED9011C9642C4D1009E9E42C1D1C2E7B0
:10469000031C283B311C99408B46002188E6301CC6
:1046A00000F06CFC203072E6283B211C994000226F
:1046B0008846914651E6201C00F060FC20303BE625
:1046C0000021B14500D33DE7009F5A46B944B945A2
:1046D000BF417F423F19FB18013A9C421ED29842CB
:1046E00000D97EE000D1B5E0191A93462AE7894542
:1046F00000D8ADE64846464642467708D307460806
:10470000C0071E438146AAE65846204212D1044300
:1047100024032A1C240B89465C4D65E6A342E3D1A1
:10472000009F4F45DBD9211A93460BE7171CDDE6A6
:104730009B46BCE63C432403240B009A534D53E6AE
:10474000B24259D800D18AE0011C62E75F46C9082D
:104750007B07039E0B437C026D0501229946240BC7
:104760006D0D324040E64A4B049FDB1B382B10DDB9
:10477000039C0122224000240025A14634E60121A9
:10478000494248E7029304E71F1C21E7019C039478
:1047900041E71F2B40DC3F48049F0C1C3A18584649
:1047A0009140DC40904020430A1C511E8A41011C6C
:1047B00011435A46DA40131C480709D00F220A4019
:1047C000042A05D00A1D8A42894149425B18111CFE
:1047D0001A0234D5039C0122224000240125A1465F
:1047E00002E6009F02214942B9448B44B945894100
:1047F00049420919CB18A4E6009D881E6900A94208
:10480000AD416D422C19361900913AE7002B00D0CA
:1048100033E70024009437E71F4A049C5D46121BCF
:10482000D5402A1C202B1FD01C4E5F46A3199F4049
:104830003B1C19434B1E994111430023BCE75A0707
:10484000C9080A43039F91465B0201221C0B3A40B0
:104850000025C9E54E45C4D89346002172E6009F65
:104860009F42C9D3011C0FE70023E2E78024240301
:104870005F463C432403240B019A8946034DB3E56C
:10488000FF030000FFFFFFFEFE070000FF07000020
:1048900002FCFFFF1E040000E2FBFFFF3E040000DD
:1048A000F0B5564644465F464D46F0B41F1C0B0318
:1048B0001B0B9A464B0087B0041C80465B0DC80F4B
:1048C000161C02938146002B68D0694B02999942CD
:1048D00032D08022534652031A43D200630F1A4348
:1048E0009246644AE000891880460291002400251F
:1048F0003B031B0B9B467800FB0F321C400D0393C0
:1049000000D175E05A4B984269D080225946520333
:104910000A43730FD2001A43564B9346C018F20055
:10492000002303994E4671401C430F2C00D9A9E087
:10493000514EA4003459A74653461C4300D087E08B
:104940000025AA46A84608240225D1E74946022D9B
:104950006CD0032D00D117E2012D00D058E10D409D
:10496000EDB20024A9460023A04600200021250323
:104970000A0D1C052D0B1205404B2A4313402343FF
:104980005B004C465B08E207191C4046114307B028
:104990003CBC90469946A246AB46F0BD53462343E5
:1049A00050D05346002B00D184E1504600F0E6FA87
:1049B000031E272B00DD76E128210D1A211C083B60
:1049C0005246E9409A400D1C1543221C9A40AA46C3
:1049D00090462B4B00241B1A0293002588E75B4668
:1049E0001E430323002E9CD1B3460022022398E7E6
:1049F0005B46334321D05846002800D14EE100F0F9
:104A0000BDFA272800DD42E128210F1A021C311CC3
:104A1000083A5B46F94093400F1C1F43331C9340F8
:104A2000BB461A1C164B181A00237AE701230B40C9
:104A300000249946A0460E4B97E70027BB4600226C
:104A400001236EE7002104248A46884601254FE7AA
:104A50000C2403254CE700258024A9462403A846FE
:104A6000034B82E7DA46904603991D1C6FE7C04668
:104A7000FF07000001FCFFFF94540008FFFF0F80B8
:104A80000DFCFFFF029F160C381804904046070CDF
:104A90000004000C1204120C031C5343041C3D1CA4
:104AA0007443554398463B1C73436419A4464446DB
:104AB0000293230C63449D4204D9029D8024640226
:104AC0002D1902951D0C039545462C041B04240C3E
:104AD0001C1905945C46230C051C58432404240C23
:104AE0008446381C604365435F438146CC44280CB0
:104AF0006044BB46814502D980277F02BB442D0418
:104B0000070C2D0C000440195546BC462F04E34405
:104B10008446280C3D0C2F1C5743B8462F1C774366
:104B20004243B94647463F0C9144BA46D1444643B6
:104B30004A4502D980225202B6184F463A0CB6189E
:104B40003A0447463F043F0CB8462F1C67435D4379
:104B50004443584365190190380C2D184244B84617
:104B6000AC4204D9019880235B02C0180190039CD9
:104B7000029F201C6044C0196045A441474664421E
:104B8000A4462B043C049946240C4C44A046D8442B
:104B90008018C246E24490429241574652429146A2
:104BA000F219E245BF417F424B46BC46D845BF4162
:104BB000D4187F4263461F432D0C7F19B2429241A5
:104BC0004C45AD4152426D421543019E7D19AB19D2
:104BD000E20D5B02059F134342023A439A46531E7D
:104BE0009A41C30D101C184364022043804650466E
:104BF000C0010DD5454601225646049C6B082A404B
:104C00001A43F30701341A43760804949046B246D7
:104C1000049E634FF319002B61DD404640070BD023
:104C20000F2244462240042A06D04246043242451E
:104C300080414042824490465546ED0107D5594B8C
:104C40005646049F80201E40C000B2463B18564A7C
:104C5000934200DDEAE644465546E2086807104301
:104C600001226C025B050A408046240B5B0D9146D5
:104C70007BE6DA4690461D1C69E6802424035746ED
:104C800027421CD13C432403240B484B6DE6031CF4
:104C9000283B311C99408B460022C3E6301C00F0B3
:104CA0006DF92030ADE6283B211C994000228A4650
:104CB00090468EE6201C00F061F9203078E65846D8
:104CC000204207D1044303992403240B89469046CC
:104CD000364B4AE63C432403240B344B45E6344B25
:104CE000049E9B1B382B06DD01230B4000249946B4
:104CF000A046002339E61F2B25DC049C2D4D46469B
:104D00006019524644468640DC4082405746301C7B
:104D10002243DF40441EA04102433B1C540709D0FC
:104D20000F201040042805D0101D9042924152429D
:104D30009B18021C1D021AD501230B400024994622
:104D4000A046012311E61C48049C5546001BC540A3
:104D5000281C202B16D0194E5746A21997403A1CF2
:104D600043461A43531E9A4102430023D6E758078D
:104D70005B02D2081C0B01230B401043994680466E
:104D80000023F2E50022EBE78024240350460123B0
:104D9000044319402403240B8946044BE5E5C0462F
:104DA000FF030000FFFFFFFEFE070000FF070000FB
:104DB00002FCFFFF1E040000E2FBFFFF3E040000B8
:104DC00043001B0E5A1C4102D2B270B54C0AC50FEB
:104DD000012A17DDE02292006407090B98180022CF
:104DE00000231E0D221C34050C431B4940054008BE
:104DF0002140014349004908ED070B1C2B43101CBF
:104E0000191C70BD002B15D1002C1CD0201C00F0EB
:104E1000B5F80A281ADC0B21091A231CCB40191CEF
:104E2000031C15339C400D4B0903181A4005090B50
:104E3000400DD4E7002C03D06407090B0848CEE7E7
:104E400007480021CBE700200021C8E7011C0B39EF
:104E50008C40211C0024E6E7FFFF0F80890300003F
:104E6000FF070000F0B54B000D03420F5B0D6D0A0C
:104E700015435A1C5205CC0FC600520D012A27DDDE
:104E8000394FDA19FE2A1ADC002A35DD8001ED00DF
:104E9000431E98412843760F3043430704D00F2325
:104EA0000340042B00D004308021C904014027D0E6
:104EB0000132FF2A1DD083015B0AD1B201E0FF213C
:104EC00000235802C905400AE40708432043F0BD07
:104ED000002B06D1354311D10021002043025B0A8B
:104EE000EFE72E43EBD08020ED0080042843FF2223
:104EF000D3E7FF210023E4E717320DDA0520002273
:104F0000C008D1B2FF2AE9D10028D9D08023DB0321
:104F100003435B025B0AD4E7802214491204154361
:104F2000C91A1F290DDC124A371C9B18281C9F40E8
:104F300098403B1C5A1E93411843CE4030430022F8
:104F4000ABE70C4F2A1CFF1AFA40171C202909D086
:104F5000094A98188540281C3043461EB041384302
:104F600000229AE70020F7E780FCFFFF9E03000085
:104F700082FCFFFF7E030000A2FCFFFF1C21012337
:104F80001B04984201D3000C10391B0A984201D32C
:104F9000000A08391B09984201D30009043902A20A
:104FA000105C40187047C046040302020101010171
:104FB0000000000000000000014B18687047C04668
:104FC0004004002047474100474C4C0047534100F4
:104FD00047535600524D4300565447007371727444
:104FE00066000000000FC93F000F494000CB96400B
:104FF000000FC9400053FB4000CB164100ED2F418C
:10500000000F49410031624100537B41003A8A411F
:1050100000CB9641005CA34100EDAF41007EBC4156
:10502000000FC94100A0D5410031E24100C2EE416C
:105030000053FB4100F20342003A0A42008310424F
:1050400000CB164200141D42005C234200A52942F9
:1050500000ED2F4200363642007E3C4200C74242FD
:10506000000F4942A2000000F90000008300000088
:105070006E0000004E00000044000000150000001B
:1050800029000000FC00000027000000570000007D
:10509000D1000000F500000034000000DD00000039
:1050A000C0000000DB00000062000000950000006E
:1050B000990000003C000000430000009000000048
:1050C00041000000FE0000005100000063000000ED
:1050D000AB000000DE000000BB000000C5000000C7
:1050E00061000000B7000000240000006E00000016
:1050F0003A000000420000004D000000D200000015
:10510000E000000006000000490000002E00000042
:10511000EA00000009000000D10000009200000039
:105120001C000000FE0000001D000000EB0000005D
:105130001C000000B100000029000000A7000000D2
:105140003E000000E8000000820000003500000082
:10515000F50000002E000000BB000000440000002D
:1051600084000000E90000009C00000070000000C6
:1051700026000000B40000005F0000007E00000078
:10518000410000003900000091000000D60000003E
:1051900039000000830000005300000039000000C7
:1051A000F40000009C000000840000005F0000008C
:1051B0008B000000BD000000F90000002800000086
:1051C0003B0000001F000000F800000097000000F6
:1051D000FF000000DE000000050000009800000055
:1051E0000F000000EF0000002F0000001100000081
:1051F0008B0000005A0000000A0000006D00000053
:105200001F0000006D000000360000007E0000005E
:10521000CF00000027000000CB00000009000000C4
:10522000B70000004F000000460000003F000000F3
:10523000660000009E0000005F000000EA00000021
:105240002D0000007500000027000000BA000000DB
:10525000C7000000EB000000E5000000F1000000C6
:105260007B0000003D000000070000003900000046
:10527000F70000008A0000005200000092000000C9
:10528000EA0000006B000000FB0000005F0000006F
:10529000B10000001F0000008D0000005D00000054
:1052A000080000005600000003000000300000006D
:1052B00046000000FC0000007B0000006B000000C6
:1052C000AB000000F0000000CF000000BC000000B8
:1052D000200000009A000000F400000036000000EA
:1052E0001D000000A9000000E30000009100000084
:1052F000610000005E000000E60000001B000000EE
:105300000800000065000000990000008500000012
:105310005F00000014000000A00000006800000012
:10532000400000008D000000FF000000D8000000D9
:10533000800000004D000000730000002700000006
:10534000310000000600000006000000150000000B
:1053500056000000CA00000073000000A800000012
:10536000C900000060000000E20000007B000000B7
:10537000C00000008C0000006B0000000400000072
:1053800007000000090000000000C93F0000F039DC
:105390000000DA370000A2330000842E0000502BFA
:1053A0000000C2270000D0220000C41F0000C61B5E
:1053B000000044176937AC3168212233B40F14332D
:1053C0006821A2333863ED3EDA0F493F5E987B3F98
:1053D000DA0FC93F60330008123300084033000879
:1053E0009A32000840330008363300084033000882
:1053F0009A320008123300081233000836330008CE
:105400009A32000892320008923200089232000864
:105410004633000804370008FE360008FE36000850
:10542000F43600085436000854360008EA360008FE
:10543000F436000854360008EA36000854360008EE
:10544000F43600085236000852360008523600087A
:105450008C37000840440008DC430008244400085E
:105460000A430008244400081844000824440008A3
:105470000A430008DC430008DC4300081844000825
:105480000A430008004300080043000800430008E6
:1054900064460008844A0008724C0008724C0008F8
:1054A000644A00084E4900084E490008564A000860
:1054B000644A00084E490008564A00084E49000850
:1054C000644A00084C4900084C4900084C4900084F
:0854D0007A4C000843000000C3
:1054D8000000000001020304010203040607080992
:1054E8000101010101010101000000000403002085
:1054F8006C030020D403002000000000000000001E
:105508000000000000000000000000000000000093
:10551800000000000000000000000000D454000853
:105528000000000000000000000000000000000073
:105538000000000000000000000000000000000063
:105548000000000000000000000000000000000053
:105558000000000000000000000000000000000043
:105568000000000000000000000000000000000033
:105578000000000000000000000000000000000023
:105588000000000000000000000000000000000013
:1055980001000000000000000E33CDAB34126DE6B0
:1055A800ECDE05000B000000000000000000000019
:1055B80000000000000000000000000000000000E3
:1055C80000000000000000000000000000000000D3
:1055D80000000000000000000000000000000000C3
:1055E80000000000000000000000000000000000B3
:045918001800002053
:0400000508000000EF
:00000001FF
